{
  "_format": "hh-sol-artifact-1",
  "contractName": "PMTR",
  "sourceName": "contracts/PMTR.sol",
  "abi": [
    {
      "inputs": [
        {
          "internalType": "string",
          "name": "_initBaseURI",
          "type": "string"
        }
      ],
      "stateMutability": "nonpayable",
      "type": "constructor"
    },
    {
      "inputs": [],
      "name": "ApprovalCallerNotOwnerNorApproved",
      "type": "error"
    },
    {
      "inputs": [],
      "name": "ApprovalQueryForNonexistentToken",
      "type": "error"
    },
    {
      "inputs": [],
      "name": "BalanceQueryForZeroAddress",
      "type": "error"
    },
    {
      "inputs": [],
      "name": "InsufficientFunds",
      "type": "error"
    },
    {
      "inputs": [],
      "name": "MintERC2309QuantityExceedsLimit",
      "type": "error"
    },
    {
      "inputs": [],
      "name": "MintToZeroAddress",
      "type": "error"
    },
    {
      "inputs": [],
      "name": "MintZeroQuantity",
      "type": "error"
    },
    {
      "inputs": [],
      "name": "OwnerQueryForNonexistentToken",
      "type": "error"
    },
    {
      "inputs": [],
      "name": "OwnershipNotInitializedForExtraData",
      "type": "error"
    },
    {
      "inputs": [],
      "name": "TransferCallerNotOwnerNorApproved",
      "type": "error"
    },
    {
      "inputs": [],
      "name": "TransferFromIncorrectOwner",
      "type": "error"
    },
    {
      "inputs": [],
      "name": "TransferToNonERC721ReceiverImplementer",
      "type": "error"
    },
    {
      "inputs": [],
      "name": "TransferToZeroAddress",
      "type": "error"
    },
    {
      "inputs": [],
      "name": "URIQueryForNonexistentToken",
      "type": "error"
    },
    {
      "inputs": [],
      "name": "maxPerWalletExceeded",
      "type": "error"
    },
    {
      "anonymous": false,
      "inputs": [
        {
          "indexed": true,
          "internalType": "address",
          "name": "owner",
          "type": "address"
        },
        {
          "indexed": true,
          "internalType": "address",
          "name": "approved",
          "type": "address"
        },
        {
          "indexed": true,
          "internalType": "uint256",
          "name": "tokenId",
          "type": "uint256"
        }
      ],
      "name": "Approval",
      "type": "event"
    },
    {
      "anonymous": false,
      "inputs": [
        {
          "indexed": true,
          "internalType": "address",
          "name": "owner",
          "type": "address"
        },
        {
          "indexed": true,
          "internalType": "address",
          "name": "operator",
          "type": "address"
        },
        {
          "indexed": false,
          "internalType": "bool",
          "name": "approved",
          "type": "bool"
        }
      ],
      "name": "ApprovalForAll",
      "type": "event"
    },
    {
      "anonymous": false,
      "inputs": [
        {
          "indexed": true,
          "internalType": "uint256",
          "name": "fromTokenId",
          "type": "uint256"
        },
        {
          "indexed": false,
          "internalType": "uint256",
          "name": "toTokenId",
          "type": "uint256"
        },
        {
          "indexed": true,
          "internalType": "address",
          "name": "from",
          "type": "address"
        },
        {
          "indexed": true,
          "internalType": "address",
          "name": "to",
          "type": "address"
        }
      ],
      "name": "ConsecutiveTransfer",
      "type": "event"
    },
    {
      "anonymous": false,
      "inputs": [
        {
          "indexed": true,
          "internalType": "address",
          "name": "previousOwner",
          "type": "address"
        },
        {
          "indexed": true,
          "internalType": "address",
          "name": "newOwner",
          "type": "address"
        }
      ],
      "name": "OwnershipTransferred",
      "type": "event"
    },
    {
      "anonymous": false,
      "inputs": [
        {
          "indexed": true,
          "internalType": "address",
          "name": "from",
          "type": "address"
        },
        {
          "indexed": true,
          "internalType": "address",
          "name": "to",
          "type": "address"
        },
        {
          "indexed": true,
          "internalType": "uint256",
          "name": "tokenId",
          "type": "uint256"
        }
      ],
      "name": "Transfer",
      "type": "event"
    },
    {
      "inputs": [
        {
          "internalType": "uint256",
          "name": "tokens",
          "type": "uint256"
        }
      ],
      "name": "Airdrop",
      "outputs": [],
      "stateMutability": "nonpayable",
      "type": "function"
    },
    {
      "inputs": [],
      "name": "MaxPerWalletAirdrop",
      "outputs": [
        {
          "internalType": "uint256",
          "name": "",
          "type": "uint256"
        }
      ],
      "stateMutability": "view",
      "type": "function"
    },
    {
      "inputs": [],
      "name": "MaxperWallet",
      "outputs": [
        {
          "internalType": "uint256",
          "name": "",
          "type": "uint256"
        }
      ],
      "stateMutability": "view",
      "type": "function"
    },
    {
      "inputs": [],
      "name": "MaxperWalletWL",
      "outputs": [
        {
          "internalType": "uint256",
          "name": "",
          "type": "uint256"
        }
      ],
      "stateMutability": "view",
      "type": "function"
    },
    {
      "inputs": [
        {
          "internalType": "uint256",
          "name": "tokens",
          "type": "uint256"
        },
        {
          "internalType": "bytes32[]",
          "name": "merkleProof",
          "type": "bytes32[]"
        }
      ],
      "name": "WLMint",
      "outputs": [],
      "stateMutability": "payable",
      "type": "function"
    },
    {
      "inputs": [],
      "name": "airdropEnabled",
      "outputs": [
        {
          "internalType": "bool",
          "name": "",
          "type": "bool"
        }
      ],
      "stateMutability": "view",
      "type": "function"
    },
    {
      "inputs": [
        {
          "internalType": "address",
          "name": "to",
          "type": "address"
        },
        {
          "internalType": "uint256",
          "name": "tokenId",
          "type": "uint256"
        }
      ],
      "name": "approve",
      "outputs": [],
      "stateMutability": "payable",
      "type": "function"
    },
    {
      "inputs": [
        {
          "internalType": "address",
          "name": "owner",
          "type": "address"
        }
      ],
      "name": "balanceOf",
      "outputs": [
        {
          "internalType": "uint256",
          "name": "",
          "type": "uint256"
        }
      ],
      "stateMutability": "view",
      "type": "function"
    },
    {
      "inputs": [],
      "name": "baseExtension",
      "outputs": [
        {
          "internalType": "string",
          "name": "",
          "type": "string"
        }
      ],
      "stateMutability": "view",
      "type": "function"
    },
    {
      "inputs": [],
      "name": "baseURI",
      "outputs": [
        {
          "internalType": "string",
          "name": "",
          "type": "string"
        }
      ],
      "stateMutability": "view",
      "type": "function"
    },
    {
      "inputs": [
        {
          "internalType": "bool",
          "name": "_state",
          "type": "bool"
        }
      ],
      "name": "enableAirdrop",
      "outputs": [],
      "stateMutability": "nonpayable",
      "type": "function"
    },
    {
      "inputs": [],
      "name": "firstCost",
      "outputs": [
        {
          "internalType": "uint256",
          "name": "",
          "type": "uint256"
        }
      ],
      "stateMutability": "view",
      "type": "function"
    },
    {
      "inputs": [
        {
          "internalType": "uint256",
          "name": "tokenId",
          "type": "uint256"
        }
      ],
      "name": "getApproved",
      "outputs": [
        {
          "internalType": "address",
          "name": "",
          "type": "address"
        }
      ],
      "stateMutability": "view",
      "type": "function"
    },
    {
      "inputs": [
        {
          "internalType": "uint256",
          "name": "_mintAmount",
          "type": "uint256"
        },
        {
          "internalType": "address",
          "name": "destination",
          "type": "address"
        }
      ],
      "name": "gift",
      "outputs": [],
      "stateMutability": "nonpayable",
      "type": "function"
    },
    {
      "inputs": [
        {
          "internalType": "address",
          "name": "owner",
          "type": "address"
        },
        {
          "internalType": "address",
          "name": "operator",
          "type": "address"
        }
      ],
      "name": "isApprovedForAll",
      "outputs": [
        {
          "internalType": "bool",
          "name": "",
          "type": "bool"
        }
      ],
      "stateMutability": "view",
      "type": "function"
    },
    {
      "inputs": [],
      "name": "maxSupply",
      "outputs": [
        {
          "internalType": "uint256",
          "name": "",
          "type": "uint256"
        }
      ],
      "stateMutability": "view",
      "type": "function"
    },
    {
      "inputs": [],
      "name": "merkleRoot",
      "outputs": [
        {
          "internalType": "bytes32",
          "name": "",
          "type": "bytes32"
        }
      ],
      "stateMutability": "view",
      "type": "function"
    },
    {
      "inputs": [],
      "name": "name",
      "outputs": [
        {
          "internalType": "string",
          "name": "",
          "type": "string"
        }
      ],
      "stateMutability": "view",
      "type": "function"
    },
    {
      "inputs": [],
      "name": "notRevealedUri",
      "outputs": [
        {
          "internalType": "string",
          "name": "",
          "type": "string"
        }
      ],
      "stateMutability": "view",
      "type": "function"
    },
    {
      "inputs": [
        {
          "internalType": "address",
          "name": "owner",
          "type": "address"
        }
      ],
      "name": "numberMinted",
      "outputs": [
        {
          "internalType": "uint256",
          "name": "",
          "type": "uint256"
        }
      ],
      "stateMutability": "view",
      "type": "function"
    },
    {
      "inputs": [],
      "name": "owner",
      "outputs": [
        {
          "internalType": "address",
          "name": "",
          "type": "address"
        }
      ],
      "stateMutability": "view",
      "type": "function"
    },
    {
      "inputs": [
        {
          "internalType": "uint256",
          "name": "tokenId",
          "type": "uint256"
        }
      ],
      "name": "ownerOf",
      "outputs": [
        {
          "internalType": "address",
          "name": "",
          "type": "address"
        }
      ],
      "stateMutability": "view",
      "type": "function"
    },
    {
      "inputs": [
        {
          "internalType": "bool",
          "name": "_state",
          "type": "bool"
        }
      ],
      "name": "pause",
      "outputs": [],
      "stateMutability": "nonpayable",
      "type": "function"
    },
    {
      "inputs": [],
      "name": "paused",
      "outputs": [
        {
          "internalType": "bool",
          "name": "",
          "type": "bool"
        }
      ],
      "stateMutability": "view",
      "type": "function"
    },
    {
      "inputs": [],
      "name": "publicSale",
      "outputs": [
        {
          "internalType": "bool",
          "name": "",
          "type": "bool"
        }
      ],
      "stateMutability": "view",
      "type": "function"
    },
    {
      "inputs": [
        {
          "internalType": "uint256",
          "name": "tokens",
          "type": "uint256"
        }
      ],
      "name": "publicSaleMint",
      "outputs": [],
      "stateMutability": "payable",
      "type": "function"
    },
    {
      "inputs": [],
      "name": "renounceOwnership",
      "outputs": [],
      "stateMutability": "nonpayable",
      "type": "function"
    },
    {
      "inputs": [
        {
          "internalType": "bool",
          "name": "_state",
          "type": "bool"
        }
      ],
      "name": "reveal",
      "outputs": [],
      "stateMutability": "nonpayable",
      "type": "function"
    },
    {
      "inputs": [],
      "name": "revealed",
      "outputs": [
        {
          "internalType": "bool",
          "name": "",
          "type": "bool"
        }
      ],
      "stateMutability": "view",
      "type": "function"
    },
    {
      "inputs": [
        {
          "internalType": "address",
          "name": "from",
          "type": "address"
        },
        {
          "internalType": "address",
          "name": "to",
          "type": "address"
        },
        {
          "internalType": "uint256",
          "name": "tokenId",
          "type": "uint256"
        }
      ],
      "name": "safeTransferFrom",
      "outputs": [],
      "stateMutability": "payable",
      "type": "function"
    },
    {
      "inputs": [
        {
          "internalType": "address",
          "name": "from",
          "type": "address"
        },
        {
          "internalType": "address",
          "name": "to",
          "type": "address"
        },
        {
          "internalType": "uint256",
          "name": "tokenId",
          "type": "uint256"
        },
        {
          "internalType": "bytes",
          "name": "_data",
          "type": "bytes"
        }
      ],
      "name": "safeTransferFrom",
      "outputs": [],
      "stateMutability": "payable",
      "type": "function"
    },
    {
      "inputs": [],
      "name": "secondCost",
      "outputs": [
        {
          "internalType": "uint256",
          "name": "",
          "type": "uint256"
        }
      ],
      "stateMutability": "view",
      "type": "function"
    },
    {
      "inputs": [
        {
          "internalType": "address",
          "name": "operator",
          "type": "address"
        },
        {
          "internalType": "bool",
          "name": "approved",
          "type": "bool"
        }
      ],
      "name": "setApprovalForAll",
      "outputs": [],
      "stateMutability": "nonpayable",
      "type": "function"
    },
    {
      "inputs": [
        {
          "internalType": "string",
          "name": "_newBaseExtension",
          "type": "string"
        }
      ],
      "name": "setBaseExtension",
      "outputs": [],
      "stateMutability": "nonpayable",
      "type": "function"
    },
    {
      "inputs": [
        {
          "internalType": "string",
          "name": "_newBaseURI",
          "type": "string"
        }
      ],
      "name": "setBaseURI",
      "outputs": [],
      "stateMutability": "nonpayable",
      "type": "function"
    },
    {
      "inputs": [
        {
          "internalType": "uint256",
          "name": "_newCost",
          "type": "uint256"
        }
      ],
      "name": "setFirstCost",
      "outputs": [],
      "stateMutability": "nonpayable",
      "type": "function"
    },
    {
      "inputs": [
        {
          "internalType": "uint256",
          "name": "_limit",
          "type": "uint256"
        }
      ],
      "name": "setMaxPerWallet",
      "outputs": [],
      "stateMutability": "nonpayable",
      "type": "function"
    },
    {
      "inputs": [
        {
          "internalType": "uint256",
          "name": "_limit",
          "type": "uint256"
        }
      ],
      "name": "setMaxPerWalletAirdrop",
      "outputs": [],
      "stateMutability": "nonpayable",
      "type": "function"
    },
    {
      "inputs": [
        {
          "internalType": "uint256",
          "name": "_limit",
          "type": "uint256"
        }
      ],
      "name": "setMaxperWalletWL",
      "outputs": [],
      "stateMutability": "nonpayable",
      "type": "function"
    },
    {
      "inputs": [
        {
          "internalType": "uint256",
          "name": "_newsupply",
          "type": "uint256"
        }
      ],
      "name": "setMaxsupply",
      "outputs": [],
      "stateMutability": "nonpayable",
      "type": "function"
    },
    {
      "inputs": [
        {
          "internalType": "bytes32",
          "name": "_merkleRoot",
          "type": "bytes32"
        }
      ],
      "name": "setMerkleRoot",
      "outputs": [],
      "stateMutability": "nonpayable",
      "type": "function"
    },
    {
      "inputs": [
        {
          "internalType": "string",
          "name": "_notRevealedURI",
          "type": "string"
        }
      ],
      "name": "setNotRevealedURI",
      "outputs": [],
      "stateMutability": "nonpayable",
      "type": "function"
    },
    {
      "inputs": [
        {
          "internalType": "uint256",
          "name": "_newCost",
          "type": "uint256"
        }
      ],
      "name": "setSecondCost",
      "outputs": [],
      "stateMutability": "nonpayable",
      "type": "function"
    },
    {
      "inputs": [
        {
          "internalType": "uint256",
          "name": "_newCost",
          "type": "uint256"
        }
      ],
      "name": "setThirdCost",
      "outputs": [],
      "stateMutability": "nonpayable",
      "type": "function"
    },
    {
      "inputs": [
        {
          "internalType": "uint256",
          "name": "_newwlCost",
          "type": "uint256"
        }
      ],
      "name": "setWlCost",
      "outputs": [],
      "stateMutability": "nonpayable",
      "type": "function"
    },
    {
      "inputs": [
        {
          "internalType": "bytes4",
          "name": "interfaceId",
          "type": "bytes4"
        }
      ],
      "name": "supportsInterface",
      "outputs": [
        {
          "internalType": "bool",
          "name": "",
          "type": "bool"
        }
      ],
      "stateMutability": "view",
      "type": "function"
    },
    {
      "inputs": [],
      "name": "symbol",
      "outputs": [
        {
          "internalType": "string",
          "name": "",
          "type": "string"
        }
      ],
      "stateMutability": "view",
      "type": "function"
    },
    {
      "inputs": [],
      "name": "thirdCost",
      "outputs": [
        {
          "internalType": "uint256",
          "name": "",
          "type": "uint256"
        }
      ],
      "stateMutability": "view",
      "type": "function"
    },
    {
      "inputs": [
        {
          "internalType": "bool",
          "name": "_state",
          "type": "bool"
        }
      ],
      "name": "togglepublicSale",
      "outputs": [],
      "stateMutability": "nonpayable",
      "type": "function"
    },
    {
      "inputs": [
        {
          "internalType": "bool",
          "name": "_state",
          "type": "bool"
        }
      ],
      "name": "togglewlMint",
      "outputs": [],
      "stateMutability": "nonpayable",
      "type": "function"
    },
    {
      "inputs": [
        {
          "internalType": "uint256",
          "name": "tokenId",
          "type": "uint256"
        }
      ],
      "name": "tokenURI",
      "outputs": [
        {
          "internalType": "string",
          "name": "",
          "type": "string"
        }
      ],
      "stateMutability": "view",
      "type": "function"
    },
    {
      "inputs": [],
      "name": "totalSupply",
      "outputs": [
        {
          "internalType": "uint256",
          "name": "",
          "type": "uint256"
        }
      ],
      "stateMutability": "view",
      "type": "function"
    },
    {
      "inputs": [
        {
          "internalType": "address",
          "name": "from",
          "type": "address"
        },
        {
          "internalType": "address",
          "name": "to",
          "type": "address"
        },
        {
          "internalType": "uint256",
          "name": "tokenId",
          "type": "uint256"
        }
      ],
      "name": "transferFrom",
      "outputs": [],
      "stateMutability": "payable",
      "type": "function"
    },
    {
      "inputs": [
        {
          "internalType": "address",
          "name": "newOwner",
          "type": "address"
        }
      ],
      "name": "transferOwnership",
      "outputs": [],
      "stateMutability": "nonpayable",
      "type": "function"
    },
    {
      "inputs": [],
      "name": "withdraw",
      "outputs": [],
      "stateMutability": "payable",
      "type": "function"
    },
    {
      "inputs": [],
      "name": "wlCost",
      "outputs": [
        {
          "internalType": "uint256",
          "name": "",
          "type": "uint256"
        }
      ],
      "stateMutability": "view",
      "type": "function"
    },
    {
      "inputs": [],
      "name": "wlMint",
      "outputs": [
        {
          "internalType": "bool",
          "name": "",
          "type": "bool"
        }
      ],
      "stateMutability": "view",
      "type": "function"
    }
  ],
  "bytecode": "0x60c06040526005608081905264173539b7b760d91b60a09081526200002891600b919062000229565b5066038d7ea4c68000600d55660aa87bee538000600e556611c37937e08000600f55655af3107a40006011556127106012556004601355600260145560016015556016805464ffffffffff1916630100010017905560006017553480156200008f57600080fd5b5060405162002b7838038062002b78833981016040819052620000b291620002e5565b604080518082018252601e81527f507972616d6964204d7973746572792054656d706c65205265756e696f6e00006020808301918252835180850190945260048452632826aa2960e11b908401528151919291620001139160029162000229565b5080516200012990600390602084019062000229565b50506001600055506200013c3362000153565b60016009556200014c81620001a5565b50620003fe565b600880546001600160a01b038381166001600160a01b0319831681179093556040519116919082907f8be0079c531659141344cd1fd0a4f28419497f9722a3daafe3b4186f6b6457e090600090a35050565b620001af620001c8565b8051620001c490600a90602084019062000229565b5050565b6008546001600160a01b03163314620002275760405162461bcd60e51b815260206004820181905260248201527f4f776e61626c653a2063616c6c6572206973206e6f7420746865206f776e6572604482015260640160405180910390fd5b565b8280546200023790620003c1565b90600052602060002090601f0160209004810192826200025b5760008555620002a6565b82601f106200027657805160ff1916838001178555620002a6565b82800160010185558215620002a6579182015b82811115620002a657825182559160200191906001019062000289565b50620002b4929150620002b8565b5090565b5b80821115620002b45760008155600101620002b9565b634e487b7160e01b600052604160045260246000fd5b60006020808385031215620002f957600080fd5b82516001600160401b03808211156200031157600080fd5b818501915085601f8301126200032657600080fd5b8151818111156200033b576200033b620002cf565b604051601f8201601f19908116603f01168101908382118183101715620003665762000366620002cf565b8160405282815288868487010111156200037f57600080fd5b600093505b82841015620003a3578484018601518185018701529285019262000384565b82841115620003b55760008684830101525b98975050505050505050565b600181811c90821680620003d657607f821691505b60208210811415620003f857634e487b7160e01b600052602260045260246000fd5b50919050565b61276a806200040e6000396000f3fe6080604052600436106103765760003560e01c80637cb64759116101d1578063cdd155c411610102578063e44e56d2116100a0578063f12f6d5d1161006f578063f12f6d5d1461097b578063f2c4ce1e1461099b578063f2fde38b146109bb578063f3257cdd146109db57600080fd5b8063e44e56d2146108dc578063e5170b16146108fc578063e985e9c514610912578063f05398021461095b57600080fd5b8063d70a28d1116100dc578063d70a28d114610866578063da3ef23f1461087c578063dc33e6811461089c578063e268e4d3146108bc57600080fd5b8063cdd155c414610810578063d0ecdf4814610830578063d5abeb011461085057600080fd5b8063a61b72951161016f578063b88d4fde11610149578063b88d4fde146107b2578063bd7a1998146107c5578063c6682862146107db578063c87b56dd146107f057600080fd5b8063a61b729514610769578063aeeae3a614610789578063b3ab66b01461079f57600080fd5b80638da5cb5b116101ab5780638da5cb5b146106f6578063940cd05b1461071457806395d89b4114610734578063a22cb4651461074957600080fd5b80637cb64759146106965780637f9fa411146106b657806383a076be146106d657600080fd5b806333bc1c5c116102ab57806355f804b31161024957806366b4b0541161022357806366b4b054146106365780636c0360eb1461064c57806370a0823114610661578063715018a61461068157600080fd5b806355f804b3146105dc5780635c975abb146105fc5780636352211e1461061657600080fd5b806342842e0e1161028557806342842e0e1461056a57806345c490c01461057d578063518302271461059d578063552163fd146105bc57600080fd5b806333bc1c5c1461052b5780633827a5bb1461054c5780633ccfd60b1461056257600080fd5b806318160ddd11610318578063226fe1c0116102f2578063226fe1c0146104d957806323b872dd146104ec5780632eb4a7ab146104ff578063325ff05a1461051557600080fd5b806318160ddd146104745780632010428914610497578063215b7cea146104b957600080fd5b8063081812fc11610354578063081812fc146103f4578063081c8c441461042c578063095ea7b314610441578063149835a01461045457600080fd5b806301ffc9a71461037b57806302329a29146103b057806306fdde03146103d2575b600080fd5b34801561038757600080fd5b5061039b610396366004612112565b6109fb565b60405190151581526020015b60405180910390f35b3480156103bc57600080fd5b506103d06103cb366004612144565b610a4d565b005b3480156103de57600080fd5b506103e7610a68565b6040516103a791906121b7565b34801561040057600080fd5b5061041461040f3660046121ca565b610afa565b6040516001600160a01b0390911681526020016103a7565b34801561043857600080fd5b506103e7610b3e565b6103d061044f3660046121fa565b610bcc565b34801561046057600080fd5b506103d061046f3660046121ca565b610c6c565b34801561048057600080fd5b50610489610c79565b6040519081526020016103a7565b3480156104a357600080fd5b5060165461039b90640100000000900460ff1681565b3480156104c557600080fd5b506103d06104d43660046121ca565b610c87565b6103d06104e7366004612224565b610c94565b6103d06104fa3660046122a3565b610f76565b34801561050b57600080fd5b5061048960175481565b34801561052157600080fd5b50610489600f5481565b34801561053757600080fd5b5060165461039b906301000000900460ff1681565b34801561055857600080fd5b50610489600e5481565b6103d0611107565b6103d06105783660046122a3565b611179565b34801561058957600080fd5b506103d0610598366004612144565b611194565b3480156105a957600080fd5b5060165461039b90610100900460ff1681565b3480156105c857600080fd5b506103d06105d73660046121ca565b6111b8565b3480156105e857600080fd5b506103d06105f736600461236b565b6111c5565b34801561060857600080fd5b5060165461039b9060ff1681565b34801561062257600080fd5b506104146106313660046121ca565b6111e4565b34801561064257600080fd5b5061048960155481565b34801561065857600080fd5b506103e76111ef565b34801561066d57600080fd5b5061048961067c3660046123b4565b6111fc565b34801561068d57600080fd5b506103d061124b565b3480156106a257600080fd5b506103d06106b13660046121ca565b61125d565b3480156106c257600080fd5b5060165461039b9062010000900460ff1681565b3480156106e257600080fd5b506103d06106f13660046123cf565b61126a565b34801561070257600080fd5b506008546001600160a01b0316610414565b34801561072057600080fd5b506103d061072f366004612144565b611310565b34801561074057600080fd5b506103e7611332565b34801561075557600080fd5b506103d06107643660046123fb565b611341565b34801561077557600080fd5b506103d0610784366004612144565b6113ad565b34801561079557600080fd5b5061048960145481565b6103d06107ad3660046121ca565b6113d5565b6103d06107c0366004612425565b6115aa565b3480156107d157600080fd5b5061048960135481565b3480156107e757600080fd5b506103e76115f4565b3480156107fc57600080fd5b506103e761080b3660046121ca565b611601565b34801561081c57600080fd5b506103d061082b3660046121ca565b611771565b34801561083c57600080fd5b506103d061084b3660046121ca565b61177e565b34801561085c57600080fd5b5061048960125481565b34801561087257600080fd5b5061048960115481565b34801561088857600080fd5b506103d061089736600461236b565b61190d565b3480156108a857600080fd5b506104896108b73660046123b4565b611928565b3480156108c857600080fd5b506103d06108d73660046121ca565b611953565b3480156108e857600080fd5b506103d06108f73660046121ca565b611960565b34801561090857600080fd5b50610489600d5481565b34801561091e57600080fd5b5061039b61092d3660046124a1565b6001600160a01b03918216600090815260076020908152604080832093909416825291909152205460ff1690565b34801561096757600080fd5b506103d06109763660046121ca565b61196d565b34801561098757600080fd5b506103d06109963660046121ca565b61197a565b3480156109a757600080fd5b506103d06109b636600461236b565b611987565b3480156109c757600080fd5b506103d06109d63660046123b4565b6119a2565b3480156109e757600080fd5b506103d06109f6366004612144565b611a18565b60006301ffc9a760e01b6001600160e01b031983161480610a2c57506380ac58cd60e01b6001600160e01b03198316145b80610a475750635b5e139f60e01b6001600160e01b03198316145b92915050565b610a55611a3e565b6016805460ff1916911515919091179055565b606060028054610a77906124cb565b80601f0160208091040260200160405190810160405280929190818152602001828054610aa3906124cb565b8015610af05780601f10610ac557610100808354040283529160200191610af0565b820191906000526020600020905b815481529060010190602001808311610ad357829003601f168201915b5050505050905090565b6000610b0582611a98565b610b22576040516333d1c03960e21b815260040160405180910390fd5b506000908152600660205260409020546001600160a01b031690565b600c8054610b4b906124cb565b80601f0160208091040260200160405190810160405280929190818152602001828054610b77906124cb565b8015610bc45780601f10610b9957610100808354040283529160200191610bc4565b820191906000526020600020905b815481529060010190602001808311610ba757829003601f168201915b505050505081565b6000610bd7826111e4565b9050336001600160a01b03821614610c1057610bf3813361092d565b610c10576040516367d9dca160e11b815260040160405180910390fd5b60008281526006602052604080822080546001600160a01b0319166001600160a01b0387811691821790925591518593918516917f8c5be1e5ebec7d5bd14f71427d1e84f3dd0314c0f7b2291e5b200ac8c7c3b92591a4505050565b610c74611a3e565b601255565b600154600054036000190190565b610c8f611a3e565b600f55565b610c9c611acd565b60165460ff1615610cf45760405162461bcd60e51b815260206004820152601760248201527f6f6f707320636f6e74726163742069732070617573656400000000000000000060448201526064015b60405180910390fd5b60165462010000900460ff16610d4c5760405162461bcd60e51b815260206004820152601960248201527f776c4d696e74204861736e2774207374617274656420796574000000000000006044820152606401610ceb565b610dc1828280806020026020016040519081016040528093929190818152602001838360200280828437600092019190915250506017546040516bffffffffffffffffffffffff193360601b166020820152909250603401905060405160208183030381529060405280519060200120611b27565b610e0d5760405162461bcd60e51b815260206004820152601860248201527f20596f7520617265206e6f7420696e20746865205465616d00000000000000006044820152606401610ceb565b6000610e17610c79565b905060145484610e50610e273390565b6001600160a01b03166000908152600560205260409081902054901c67ffffffffffffffff1690565b610e5a919061251c565b1115610ea85760405162461bcd60e51b815260206004820152601b60248201527f4d6178204e4654205065722057616c6c657420657863656564656400000000006044820152606401610ceb565b60008411610ec85760405162461bcd60e51b8152600401610ceb90612534565b601254610ed5858361251c565b1115610ef35760405162461bcd60e51b8152600401610ceb9061256b565b601454841115610f155760405162461bcd60e51b8152600401610ceb9061258f565b601154341015610f5c5760405162461bcd60e51b8152602060048201526012602482015271696e73756666696369656e742066756e647360701b6044820152606401610ceb565b610f663385611b3d565b50610f716001600955565b505050565b6000610f8182611b57565b9050836001600160a01b0316816001600160a01b031614610fb45760405162a1148160e81b815260040160405180910390fd5b60008281526006602052604090208054338082146001600160a01b0388169091141761100157610fe4863361092d565b61100157604051632ce44b5f60e11b815260040160405180910390fd5b6001600160a01b03851661102857604051633a954ecd60e21b815260040160405180910390fd5b801561103357600082555b6001600160a01b038681166000908152600560205260408082208054600019019055918716808252919020805460010190554260a01b17600160e11b17600085815260046020526040902055600160e11b83166110be57600184016000818152600460205260409020546110bc5760005481146110bc5760008181526004602052604090208490555b505b83856001600160a01b0316876001600160a01b03167fddf252ad1be2c89b69c2b068fc378daa952ba7f163c4a11628f55a4df523b3ef60405160405180910390a4505050505050565b61110f611a3e565b611117611acd565b604051600090339047908381818185875af1925050503d8060008114611159576040519150601f19603f3d011682016040523d82523d6000602084013e61115e565b606091505b505090508061116c57600080fd5b506111776001600955565b565b610f71838383604051806020016040528060008152506115aa565b61119c611a3e565b60168054911515620100000262ff000019909216919091179055565b6111c0611a3e565b600e55565b6111cd611a3e565b80516111e090600a906020840190612063565b5050565b6000610a4782611b57565b600a8054610b4b906124cb565b60006001600160a01b038216611225576040516323d3ad8160e21b815260040160405180910390fd5b506001600160a01b031660009081526005602052604090205467ffffffffffffffff1690565b611253611a3e565b6111776000611bc0565b611265611a3e565b601755565b611272611a3e565b61127a611acd565b6000821161129a5760405162461bcd60e51b8152600401610ceb90612534565b60006112a4610c79565b6012549091506112b4848361251c565b11156112fb5760405162461bcd60e51b81526020600482015260166024820152751b585e08139195081b1a5b5a5d08195e18d95959195960521b6044820152606401610ceb565b6113058284611b3d565b506111e06001600955565b611318611a3e565b601680549115156101000261ff0019909216919091179055565b606060038054610a77906124cb565b3360008181526007602090815260408083206001600160a01b03871680855290835292819020805460ff191686151590811790915590519081529192917f17307eab39ab6107e8899845ad3d59bd9653f200f220920489ca2b5937696c31910160405180910390a35050565b6113b5611a3e565b601680549115156401000000000264ff0000000019909216919091179055565b6113dd611acd565b60165460ff161561142b5760405162461bcd60e51b81526020600482015260186024820152771bdbdc1cc84818dbdb9d1c9858dd081a5cc81c185d5cd95960421b6044820152606401610ceb565b6016546301000000900460ff166114845760405162461bcd60e51b815260206004820152601760248201527f53616c65204861736e27742073746172746564207965740000000000000000006044820152606401610ceb565b600061148e610c79565b9050600082116114b05760405162461bcd60e51b8152600401610ceb90612534565b6013548211156114d25760405162461bcd60e51b8152600401610ceb9061258f565b6012546114df838361251c565b11156114fd5760405162461bcd60e51b8152600401610ceb9061256b565b611b5861150a838361251c565b111561151b57600f54601055611540565b610dac611528838361251c565b111561153957600e54601055611540565b600d546010555b8160105461154e91906125c6565b3410156115925760405162461bcd60e51b8152602060048201526012602482015271696e73756666696369656e742066756e647360701b6044820152606401610ceb565b61159c3383611b3d565b506115a76001600955565b50565b6115b5848484610f76565b6001600160a01b0383163b156115ee576115d184848484611c12565b6115ee576040516368d2bf6b60e11b815260040160405180910390fd5b50505050565b600b8054610b4b906124cb565b606061160c82611a98565b6116715760405162461bcd60e51b815260206004820152603060248201527f455243373231414d657461646174613a2055524920717565727920666f72206e60448201526f37b732bc34b9ba32b73a103a37b5b2b760811b6064820152608401610ceb565b601654610100900460ff1661171257600c805461168d906124cb565b80601f01602080910402602001604051908101604052809291908181526020018280546116b9906124cb565b80156117065780601f106116db57610100808354040283529160200191611706565b820191906000526020600020905b8154815290600101906020018083116116e957829003601f168201915b50505050509050919050565b600061171c611d0a565b9050600081511161173c576040518060200160405280600081525061176a565b8061174684611d19565b600b60405160200161175a939291906125e5565b6040516020818303038152906040525b9392505050565b611779611a3e565b601555565b611786611acd565b601654640100000000900460ff166117e05760405162461bcd60e51b815260206004820152601b60248201527f41697264726f702069736e277420617661696c61626c652079657400000000006044820152606401610ceb565b60165460ff161561182e5760405162461bcd60e51b81526020600482015260186024820152771bdbdc1cc84818dbdb9d1c9858dd081a5cc81c185d5cd95960421b6044820152606401610ceb565b6000611838610c79565b905060155482611848610e273390565b611852919061251c565b11156118a05760405162461bcd60e51b815260206004820152601b60248201527f4d6178204e4654205065722057616c6c657420657863656564656400000000006044820152606401610ceb565b600082116118c05760405162461bcd60e51b8152600401610ceb90612534565b6012546118cd838361251c565b11156118eb5760405162461bcd60e51b8152600401610ceb9061256b565b60155482111561159c5760405162461bcd60e51b8152600401610ceb9061258f565b611915611a3e565b80516111e090600b906020840190612063565b6001600160a01b0381166000908152600560205260408082205467ffffffffffffffff911c16610a47565b61195b611a3e565b601355565b611968611a3e565b600d55565b611975611a3e565b601455565b611982611a3e565b601155565b61198f611a3e565b80516111e090600c906020840190612063565b6119aa611a3e565b6001600160a01b038116611a0f5760405162461bcd60e51b815260206004820152602660248201527f4f776e61626c653a206e6577206f776e657220697320746865207a65726f206160448201526564647265737360d01b6064820152608401610ceb565b6115a781611bc0565b611a20611a3e565b6016805491151563010000000263ff00000019909216919091179055565b6008546001600160a01b031633146111775760405162461bcd60e51b815260206004820181905260248201527f4f776e61626c653a2063616c6c6572206973206e6f7420746865206f776e65726044820152606401610ceb565b600081600111158015611aac575060005482105b8015610a47575050600090815260046020526040902054600160e01b161590565b60026009541415611b205760405162461bcd60e51b815260206004820152601f60248201527f5265656e7472616e637947756172643a207265656e7472616e742063616c6c006044820152606401610ceb565b6002600955565b600082611b348584611db6565b14949350505050565b6111e0828260405180602001604052806000815250611dfb565b60008180600111611ba757600054811015611ba757600081815260046020526040902054600160e01b8116611ba5575b8061176a575060001901600081815260046020526040902054611b87565b505b604051636f96cda160e11b815260040160405180910390fd5b600880546001600160a01b038381166001600160a01b0319831681179093556040519116919082907f8be0079c531659141344cd1fd0a4f28419497f9722a3daafe3b4186f6b6457e090600090a35050565b604051630a85bd0160e11b81526000906001600160a01b0385169063150b7a0290611c479033908990889088906004016126a9565b602060405180830381600087803b158015611c6157600080fd5b505af1925050508015611c91575060408051601f3d908101601f19168201909252611c8e918101906126e6565b60015b611cec573d808015611cbf576040519150601f19603f3d011682016040523d82523d6000602084013e611cc4565b606091505b508051611ce4576040516368d2bf6b60e11b815260040160405180910390fd5b805181602001fd5b6001600160e01b031916630a85bd0160e11b1490505b949350505050565b6060600a8054610a77906124cb565b60606000611d2683611e68565b600101905060008167ffffffffffffffff811115611d4657611d466122df565b6040519080825280601f01601f191660200182016040528015611d70576020820181803683370190505b5090508181016020015b600019016f181899199a1a9b1b9c1cb0b131b232b360811b600a86061a8153600a8504945084611da957611dae565b611d7a565b509392505050565b600081815b8451811015611dae57611de782868381518110611dda57611dda612703565b6020026020010151611f40565b915080611df381612719565b915050611dbb565b611e058383611f6c565b6001600160a01b0383163b15610f71576000548281035b611e2f6000868380600101945086611c12565b611e4c576040516368d2bf6b60e11b815260040160405180910390fd5b818110611e1c578160005414611e6157600080fd5b5050505050565b60008072184f03e93ff9f4daa797ed6e38ed64bf6a1f0160401b8310611ea75772184f03e93ff9f4daa797ed6e38ed64bf6a1f0160401b830492506040015b6d04ee2d6d415b85acef81000000008310611ed3576d04ee2d6d415b85acef8100000000830492506020015b662386f26fc100008310611ef157662386f26fc10000830492506010015b6305f5e1008310611f09576305f5e100830492506008015b6127108310611f1d57612710830492506004015b60648310611f2f576064830492506002015b600a8310610a475760010192915050565b6000818310611f5c57600082815260208490526040902061176a565b5060009182526020526040902090565b60005481611f8d5760405163b562e8dd60e01b815260040160405180910390fd5b6001600160a01b03831660008181526005602090815260408083208054680100000000000000018802019055848352600490915281206001851460e11b4260a01b178317905582840190839083907fddf252ad1be2c89b69c2b068fc378daa952ba7f163c4a11628f55a4df523b3ef8180a4600183015b81811461203c57808360007fddf252ad1be2c89b69c2b068fc378daa952ba7f163c4a11628f55a4df523b3ef600080a4600101612004565b508161205a57604051622e076360e81b815260040160405180910390fd5b60005550505050565b82805461206f906124cb565b90600052602060002090601f01602090048101928261209157600085556120d7565b82601f106120aa57805160ff19168380011785556120d7565b828001600101855582156120d7579182015b828111156120d75782518255916020019190600101906120bc565b506120e39291506120e7565b5090565b5b808211156120e357600081556001016120e8565b6001600160e01b0319811681146115a757600080fd5b60006020828403121561212457600080fd5b813561176a816120fc565b8035801515811461213f57600080fd5b919050565b60006020828403121561215657600080fd5b61176a8261212f565b60005b8381101561217a578181015183820152602001612162565b838111156115ee5750506000910152565b600081518084526121a381602086016020860161215f565b601f01601f19169290920160200192915050565b60208152600061176a602083018461218b565b6000602082840312156121dc57600080fd5b5035919050565b80356001600160a01b038116811461213f57600080fd5b6000806040838503121561220d57600080fd5b612216836121e3565b946020939093013593505050565b60008060006040848603121561223957600080fd5b83359250602084013567ffffffffffffffff8082111561225857600080fd5b818601915086601f83011261226c57600080fd5b81358181111561227b57600080fd5b8760208260051b850101111561229057600080fd5b6020830194508093505050509250925092565b6000806000606084860312156122b857600080fd5b6122c1846121e3565b92506122cf602085016121e3565b9150604084013590509250925092565b634e487b7160e01b600052604160045260246000fd5b600067ffffffffffffffff80841115612310576123106122df565b604051601f8501601f19908116603f01168101908282118183101715612338576123386122df565b8160405280935085815286868601111561235157600080fd5b858560208301376000602087830101525050509392505050565b60006020828403121561237d57600080fd5b813567ffffffffffffffff81111561239457600080fd5b8201601f810184136123a557600080fd5b611d02848235602084016122f5565b6000602082840312156123c657600080fd5b61176a826121e3565b600080604083850312156123e257600080fd5b823591506123f2602084016121e3565b90509250929050565b6000806040838503121561240e57600080fd5b612417836121e3565b91506123f26020840161212f565b6000806000806080858703121561243b57600080fd5b612444856121e3565b9350612452602086016121e3565b925060408501359150606085013567ffffffffffffffff81111561247557600080fd5b8501601f8101871361248657600080fd5b612495878235602084016122f5565b91505092959194509250565b600080604083850312156124b457600080fd5b6124bd836121e3565b91506123f2602084016121e3565b600181811c908216806124df57607f821691505b6020821081141561250057634e487b7160e01b600052602260045260246000fd5b50919050565b634e487b7160e01b600052601160045260246000fd5b6000821982111561252f5761252f612506565b500190565b6020808252601b908201527f6e65656420746f206d696e74206174206c656173742031204e46540000000000604082015260600190565b6020808252600a908201526915d94814dbdb191bdd5d60b21b604082015260600190565b6020808252601f908201527f6d6178206d696e7420616d6f756e742070657220547820657863656564656400604082015260600190565b60008160001904831182151516156125e0576125e0612506565b500290565b6000845160206125f88285838a0161215f565b85519184019161260b8184848a0161215f565b8554920191600090600181811c908083168061262857607f831692505b85831081141561264657634e487b7160e01b85526022600452602485fd5b80801561265a576001811461266b57612698565b60ff19851688528388019550612698565b60008b81526020902060005b858110156126905781548a820152908401908801612677565b505083880195505b50939b9a5050505050505050505050565b6001600160a01b03858116825284166020820152604081018390526080606082018190526000906126dc9083018461218b565b9695505050505050565b6000602082840312156126f857600080fd5b815161176a816120fc565b634e487b7160e01b600052603260045260246000fd5b600060001982141561272d5761272d612506565b506001019056fea26469706673582212209639d5a5ae6c716a2fe249ebe9ccd003c75c3b7055082bae41f0c51ca2830e1e64736f6c63430008090033",
  "linkReferences": {},
  "deployedLinkReferences": {}
}